:020000040800F2
:100000000050002021020008270200082B020008EF
:100010009D020008A1020008E9020008000000009B
:100020000000000000000000000000003103000894
:100030003503000800000000390300083D030008F4
:100040004D0300084D0300084D0300084D03000850
:100050004D0300084D0300084D0300084D03000840
:100060004D0300084D0300084D0300084D03000830
:100070004D0300084D0300084D0300084D03000820
:100080004D0300084D0300084D0300084D03000810
:100090004D0300084D0300084D0300084D03000800
:1000A0004D0300084D0300084D0300084D030008F0
:1000B0004D0300084D0300084D0300084D030008E0
:1000C0004D0300084D0300084D0300084D030008D0
:1000D0004D0300084D0300084D0300084D030008C0
:1000E0004D0300084D0300084D0300080000000008
:1000F0000000000000000000000000000000000000
:1001000000000000000000005FF808F100B583B0B7
:1001100000F00AFD304B314A1360314A1360314B15
:10012000314A03E052F8041B43F8041B2F498B4269
:10013000F8D32A4B1A682E4B9A4200D0FEE7284B80
:100140001A682C4B9A42F9D1234B2B4A13602B4A45
:1001500013602B4B02E0002243F8042B294A934200
:10016000F9D3254B1B6813B9244B1B6803B1FEE779
:1001700000F0E6FC694601A800F066FC224C234B27
:10018000E41AA410002504E0204B53F825309847CA
:100190000135AC42F8DC1E4C1E4BE41AA4100025BD
:1001A00004E01C4B53F8253098470135AC42F8DC8D
:1001B0000099019800F050FE0546174C174BE41AC1
:1001C000A41004E0013C154B53F824309847002C50
:1001D000F8DC284600F00AFCBABADECA00000020AB
:1001E00098000020000000206C2500089C000020E2
:1001F00078563412325476989C000020400100203A
:100200009C000020440100207803000878030008C7
:1002100078030008780300087803000878030008D2
:1002200008B5FFF773FF00BEFEE71EF0040F0CBF1A
:10023000EFF30880EFF309807146414A10472DE93A
:10024000F04182B004468846124B5E6B9F6B9D6AFC
:100250001B6B13F0020F03D00E4BDB6A002B0CDB81
:100260000D4800F003FCCDF800803B46324629469D
:10027000204600F069FC00BEFEE74BF6AB6100F0E3
:10028000DDFC0028ECD0034B4FF00042DA6202B0F4
:10029000BDE8F08100ED00E08023000800BEFEE72D
:1002A0001EF0040F0CBFEFF30880EFF309807146D6
:1002B000244A10472DE9F04182B004468846084B95
:1002C0005E6B9F6B9D6A074800F0D0FBCDF8008005
:1002D0003B4632462946204600F036FC00BEFEE78B
:1002E00000ED00E0902300081EF0040F0CBFEFF3B8
:1002F0000880EFF309807146134A10472DE9F04159
:1003000082B004468846084B5E6B9F6B9D6A074827
:1003100000F0ACFBCDF800803B4632462946204633
:1003200000F012FC00BEFEE700ED00E09C23000898
:1003300000BEFEE700BEFEE700BEFEE7704700001D
:100340003F020008B5020008FD02000800BEFEE7FB
:100350006C250008000000209C0000206C2500088F
:1003600000000000000000009C000020440100206C
:08037000000000000000000085
:10037800F8B505460C46494B98421BD003F58063F7
:10038800984217D003F58063984213D003F5806331
:1003980098420FD003F5806398420BD003F5806331
:1003A800984207D003F58063984203D0B2213C48B5
:1003B80000F04EFBE3786BB1042B0BD0282B09D04F
:1003C800482B07D0142B05D0102B03D01C2B01D0A1
:1003D800182B14D12388BBB1E37803F00F063046FD
:1003E80013F0100F06D0A378013BDBB2022B10D814
:1003F800A078304323785BB32E68002310E0B32144
:10040800274800F025FBE5E7B421254800F020FB4C
:10041800E2E7BB21224800F01BFBE9E76A610133F0
:10042800072B14D801229A40218832EA0101F6D11B
:1004380099000F278F4026EA070600FA01F10E43BC
:10044800E1782829EAD04829E9D12A61E7E72E602E
:100458002388FF2B20D96E68002302E06A6115E02B
:100468000133072B17D803F1080101228A4021889C
:1004780032EA0101F4D199000F278F4026EA0706D6
:1004880000FA01F10E43E1782829E7D0E1784829FC
:10049800E6D12A61E4E76E60F8BD00BF00080140BC
:1004A8008C21000870B504460D4616462D4B98421F
:1004B8001CD003F58063984218D003F580639842F6
:1004C80014D003F58063984210D003F580639842F6
:1004D8000CD003F58063984208D003F580639842F6
:1004E80004D040F28D11204800F0B2FA6B1E9BB286
:1004F800012B23D9042D21D0082D1FD0102D1DD05C
:10050800202D1BD0402D19D0802D17D0B5F5807F18
:1005180014D0B5F5007F11D0B5F5806F0ED0B5F5C4
:10052800006F0BD0B5F5805F08D0B5F5005F05D03A
:10053800B5F5804F02D0B5F5004F04D1012E08D88B
:100548006EB1256170BD4FF4C771074800F080FA9D
:10055800F4E740F28F11044800F07AFAF0E7656199
:10056800F0E700BF000801408C21000810B4294BB7
:100578005B6803F00C03042B2BD0082B2CD013B191
:10058800254B036001E0244B036022494B68C3F309
:100598000313224CE35CDAB20368D34043604A6831
:1005A800C2F30222A25CD2B223FA02F282604A6843
:1005B800C2F3C222A25CD2B2D340C3604A68C2F37B
:1005C800813217498A5CD2B2B3FBF2F3036110BCE3
:1005D8007047144B0360D8E70E4A53685268C3F358
:1005E8008343023312F4803F04D10F4A02FB03F322
:1005F8000360CAE7074A526812F4003F04D00B4A66
:1006080002FB03F30360C0E7064A02FB03F303603F
:10061800BBE700BF0010024000127A00080000206B
:1006280004000020001BB70000093D00808D5B001E
:1006380038B504460D460E4B034003B920B940F2C5
:100648004A410C4800F004FA012D05D855B10A4A70
:1006580093691C43946138BD40F24B41054800F052
:10066800F7F9F3E7044A936923EA04049461F2E78B
:100678000200C0FFC02100080010024030B587B05A
:1006880004460D46674B984213D0A3F5744398422D
:100698000FD003F5806398420BD003F5806398422E
:1006A80007D003F58063984203D0B8215E4800F074
:1006B800CFF92B68013B5D4A934200F28580AB88F5
:1006C8001BB1B3F5805F40F08480EB8843B1B3F58C
:1006D800805F05D0B3F5005F02D0B3F5405F7DD1F0
:1006E8002B892BB1B3F5806F02D0B3F5C06F7AD1E7
:1006F8006A8922F00C039BB203B91AB9BD214A4892
:1007080000F0A6F9AB8943B1B3F5807F05D0B3F506
:10071800007F02D0B3F5407F6AD1AB8973B1414BFA
:100728009C420BD0A3F574439C4207D003F5806329
:100738009C4203D0C2213C4800F08AF9238A9BB22C
:10074800EA8823F4405313432382A3899BB2A988E0
:1007580028896A8901430A4323F4B05323F00C0320
:100768001343A381A38A9BB2AA8923F4407313433A
:10077800A38201A8FFF7FAFE2A4B9C423DD0039BB7
:10078800A28912F4004F3AD103EB830303EB8303EE
:1007980029688900B3FBF1F1254BA3FB0123580914
:1007A8000501642300FB1313A28912F4004F2FD113
:1007B8001B0132331E4AA2FB0323C3F343132B430B
:1007C8009BB2238107B030BDB921174800F040F92A
:1007D80075E7BA21144800F03BF976E7BB211248C7
:1007E80000F036F97CE7BC210F4800F031F97FE7CB
:1007F800BE210D4800F02CF98FE7049BC0E703EBFE
:10080800830303EB830329684900B3FBF1F1C3E7D2
:10081800DA003232064BA3FB0232C2F3421242EA3A
:100828000503CDE700380140F02100081FAA440065
:100838001F85EB5138B504460D46164B984214D027
:10084800A3F57443984210D003F5806398420CD006
:1008580003F58063984208D003F58063984204D07A
:100868004FF4B1710C4800F0F3F8012D05D855B1DB
:10087800A38943F40053A38138BD40F263110648AD
:1008880000F0E6F8F3E7A3899BB223F400539BB288
:10089800A381F1E700380140F021000838B505468A
:1008A8000C46124B984214D0A3F57443984210D0CA
:1008B80003F5806398420CD003F58063984208D012
:1008C80003F58063984204D040F25F21084800F0A5
:1008D800BFF8B4F5007F03D2C4F30804AC8038BD78
:1008E8004FF41871024800F0B3F8F5E700380140FA
:1008F800F021000810B504460D4B984214D0A3F51A
:100908007443984210D003F5806398420CD003F5E5
:100918008063984208D003F58063984204D04FF46E
:100928001C71044800F094F8A088C0F3080010BDBA
:1009380000380140F021000838B505460C46274B21
:10094800984214D0A3F57443984210D003F58063FD
:1009580098420CD003F58063984208D003F5806371
:10096800984204D040F286311D4800F071F8012CFD
:1009780013D0802C11D0402C0FD0202C0DD0102C4F
:100988000BD0B4F5807F08D0B4F5007F05D0082CD3
:1009980003D0042C01D0022C07D1B4F5007F0AD073
:1009A8002B881C4218D0012038BD40F287310C48F2
:1009B80000F04EF8F1E7094B9D42F1D0A3F57443DE
:1009C8009D42EDD003F580639D42E9D040F28B3122
:1009D800034800F03DF8E3E70020E5E70038014070
:1009E800F0210008FEE7000008B5034800F054F8BD
:1009F8000120FFF7F7FF00BF2422000808B50346CF
:100A08000C4A12685AB10B4A1068033323F00303E7
:100A18000344094A934206D8064A136008BD054AAA
:100A280006491160EFE700F0E9FA0C2303604FF084
:100A3800FF30F3E7A0000020004C00204401002014
:100A480001230360014B0B60704700BF18000020B2
:100A580008B50A460146024800F004F8FFF7C4FF4B
:100A6800382200080FB400B583B004AB53F8042B48
:100A780001938021074800F027FB002804DC03B01D
:100A88005DF804EB04B070470146024800F044F8F2
:100A9800F5E700BFA800002010B5044600F0E0FA12
:100AA8000146204600F038F80121024800F034F8E9
:100AB80010BD00BFFC2200082DE9F04385B00446B4
:100AC8000F46435633BB042528462146ABBE044691
:100AD800384605B0BDE8F08304AA1344002203F8A1
:100AE800102C4FF00408E94640464946ABBE804604
:100AF800761B002EECD03546102E28BF102500237B
:100B0800AB42E9D214F9011B04AA1A4402F8101CDA
:100B18000133F5E70E46ECE708B5FFF7CDFF08BD52
:100B280008B500F0FDF8024A024B9A6008BD00BF04
:100B38000000000800ED00E008B500F019F908BD54
:100B4800F8B504460D4617461E462748FFF78AFFA4
:100B580021682648FFF786FF61682548FFF782FF6E
:100B6800A1682448FFF77EFFE1682348FFF77AFF72
:100B780021692248FFF776FF61692148FFF772FF74
:100B8800A1692048FFF76EFFE1691F48FFF76AFF78
:100B98001E48FFF767FF29461D48FFF763FF1D4CF6
:100BA800E16A1D48FFF75EFF216B1C48FFF75AFFFB
:100BB800E16B1B48FFF756FF15F0800F0AD115F4BB
:100BC800004F0CD11748FFF74DFF06991648FFF75D
:100BD80049FFF8BD39461548FFF744FFEFE73146AE
:100BE8001348FFF73FFFEDE764220008742200086E
:100BF8008422000894220008A4220008B4220008D5
:100C0800C4220008D4220008E4220008F4220008C4
:100C18000023000800ED00E010230008202300084E
:100C280030230008602300086823000840230008D8
:100C38005023000883691A888A4201D0002070472F
:100C48000268033A012A01D9002070470233836100
:100C58000120704782B00023019300932C4A136847
:100C680043F4803313602A4B1B6803F4003300936A
:100C7800019B01330193009B1BB9019BB3F5A06F46
:100C8800F1D1234B1B6813F4003F06D001230093D6
:100C9800009B012B04D002B0704700230093F7E7B4
:100CA8001C4B1A6842F010021A601A6822F00302FC
:100CB8001A601A6842F002021A60A3F580535A6853
:100CC8005A605A685A605A6842F480625A605A6890
:100CD80022F47C125A605A6842F4E8125A601A6880
:100CE80042F080721A600A4B1B6813F0007FFAD03A
:100CF800074B5A6822F003025A605A6842F002020F
:100D08005A60034B5B6803F00C03082BF9D1C2E768
:100D1800001002400020024008B5FFF79BFF08BD05
:100D280008B5104B1A6842F001021A6059680E4A59
:100D38000A405A601A6822F0847222F480321A60DB
:100D48001A6822F480221A605A6822F4FE025A6055
:100D58004FF41F029A60FFF7DFFF044B4FF0006269
:100D68009A6008BD001002400000FFF800ED00E0A6
:100D78001F4B5B6803F00C03042B15D0082B17D00E
:100D88001BB11C4B1C4A1A6002E01A4B1A4A1A6023
:100D9800174B5B68C3F30313184AD35CDAB21549DF
:100DA8000B68D3400B607047124B154A1A60EFE787
:100DB8000F4A53685268C3F38343023312F4803FE7
:100DC80005D1104A02FB03F30A4A1360E0E7084A18
:100DD800526812F4003F05D00B4A02FB03F3054AA0
:100DE8001360D5E7064A02FB03F3024A1360CFE714
:100DF800001002403000002000127A00200000207D
:100E0800001BB70000093D00808D5B0010B582B063
:100E1800044608462160A280ADF8042010238DF80E
:100E2800073001238DF8063001A9FFF7A1FA204603
:100E380002B010BD08B5002281880068FFF732FBB8
:100E480008BD08B5012281880068FFF72BFB08BDA3
:100E5800F0B5ABB0012144F20D00FFF7E9FB4FF408
:100E68000073ADF8A43003238DF8A63018238DF84D
:100E7800A7305E4C29A92046FFF77AFA4FF4806321
:100E8800ADF8A43004268DF8A76029A92046FFF7FD
:100E98006FFA4FF4165325930025ADF89850ADF826
:100EA8009A50ADF89C50ADF8A0500C23ADF89E3088
:100EB8004F4F25A93846FFF7E1FB01213846FFF7D8
:100EC800B9FC012221460DEB0600FFF79FFF022225
:100ED800214603A8FFF79AFF3246214605A8FFF7E7
:100EE80095FF0822214607A8FFF790FF04F58064C4
:100EF8004FF48042214609A8FFF788FF4FF40052BB
:100F080021460BA8FFF782FF4FF4004221460DA8A7
:100F1800FFF77CFF4FF4805221460FA8FFF776FFBA
:100F28008022214611A8FFF771FF4022214613A80D
:100F3800FFF76CFF42E00134AC420EDA2AAB2344DF
:100F480013F9541C89B22A48FFF7A8FC80212848C5
:100F5800FFF7F2FC0028F9D0EDE7642300936A4616
:100F6800244915A800F050F8009B234D85FB032564
:100F7800DB17C3EBA505002405E001AB03EBC400B8
:100F8800FFF758FF0134AC420DDA012CF5DD01AB57
:100F980003EBC400FFF755FFF4E701AB03EBC50013
:100FA800FFF74FFF0135092D07DC012DF5DD01ABFA
:100FB80003EBC500FFF73EFFF4E700252C46202190
:100FC8000B48FFF7B9FC0028F9D00948FFF792FC55
:100FD800651C40B22AAB1C4404F8540C0A2801D002
:100FE8000D28EBD1002DE9D00024A5E70008014029
:100FF80000380140AC23000867666666014B186834
:10100800704700BF340000200EB44FF4017230B5B1
:101018009CB01FAC54F8045BADF814200290069005
:1010280000F01EF80B4B03900B9300230F931493BF
:101038004FF6FF7307900848ADF816302A46234646
:1010480002A90068019400F0FBF91CB0BDE830402B
:1010580003B0704765100008340000200020704776
:10106800034613F8012B002AFBD1181A01387047E0
:1010780030B5141E05469BB0184605DA8B234FF091
:10108800FF302B601BB030BD4FF40273ADF80C304D
:101098000CBF234604F1FF33029305934FF6FF7309
:1010A80000910491ADF80E3002461E9B6946284611
:1010B80000F074F8431CBCBF8B232B60002CE1D0DC
:1010C8000022009B1A70DDE707B5009313460A4615
:1010D800014603480068FFF7CBFF03B05DF804FB47
:1010E800340000202DE9F0478E6882469E420C4667
:1010F8009146984638D8B1F80CC01CF4906F31D09E
:1011080062692568096902EB42026F1A02EBD27222
:10111800013355103B449D4238BF1D461CF4806F77
:1011280030D0294600F08AFF064650B90C234FF00C
:10113800FF30CAF80030A38943F04003A381BDE81B
:10114800F0873A46216900F005FFA38923F49063EC
:1011580043F08003A38126613E44266046466561CC
:10116800ED1BA560464500D94646324649462068EB
:1011780000F0FEFEA36800209B1BA36023681E44AA
:101188002660DCE72A4600F0B3FF06460028E2D1D5
:101198002169504600F006FFC8E700002DE9F04F2E
:1011A8001E468B899DB01B0607460D4614460ED574
:1011B8000B6963B9402100F041FF2860286120B91C
:1011C8000C233B604FF0FF30C9E040236B610023E4
:1011D800099320238DF8293030234FF0010ADFF8D6
:1011E80098918DF82A30039623461E4613F8012B52
:1011F8000AB1252AF9D1B6EB040B0BD05B4622467F
:1012080029463846FFF76EFF013000F0A380099B9E
:101218005B4409933378002B00F09C8000234FF047
:10122800FF32CDE905230136049307938DF8533037
:101238001A933446052214F8011B4F4800F07CFE2F
:10124800049BC0B9D90644BF20228DF853201A0741
:1012580044BF2B228DF8532032782A2A13D03446E3
:1012680000200A26079A214611F8013B303B092B3A
:101278004BD970B914E0A0EB09000AFA00F0184342
:1012880004902646D5E7039A111D12680391002A97
:1012980001DB079204E0524243F0020307920493F1
:1012A80023782E2B0CD163782A2B33D1039B02345D
:1012B8001A1D1B680392002BB8BF4FF0FF3305932C
:1012C8002E4E03222178304600F036FE38B14023F6
:1012D800801B03FA00F0049B01340343049314F8C1
:1012E800011B062226488DF8281000F025FE00284C
:1012F80038D0244B13BB039B073323F00703083371
:101308000393099B434409936EE706FB02320120CD
:101318000C46A8E700230A261946013405932046FF
:1013280010F8012B303A092A03D9002BC8D00591AF
:10133800C6E706FB012101230446F0E703AB00934F
:101348002A46114B04A93846AFF30080B0F1FF3F9D
:101358008046D6D1AB895B063FF534AF09981DB0FE
:10136800BDE8F08F03AB00932A46074B04A9384623
:1013780000F024FAEAE700BFB0230008B62300080B
:10138800BA23000800000000ED10000838B54B1C17
:10139800144603D14FF0FF35284638BD9389CDB2A6
:1013A80023F020039381636B52688BB1A36B934244
:1013B80008DD23685A1E226003F8015C6368013364
:1013C8006360E9E7214600F07DFD0028F1D0E1E700
:1013D8002169236851B1994208D213F8011CA94226
:1013E80004D1013B013223606260D5E7C4E90F32C2
:1013F80004F1440363630323A363234603F8465FAE
:1014080023600123DCE710B50C46496B69B104F190
:101418004403994201D000F0C5FD0020236C6063AD
:10142800636013B1E36B236010BD23694FF0FF3095
:10143800236000236360A38943F02003A381F3E7BB
:101448002DE9F04F0C4600210646ADF5237DCDE988
:1014580044119A490DF10408A0919949994FDFF870
:101468006892CDF81881A191009392F800A0BAF182
:10147800000F00F021811AF80730551C13F00803FB
:1014880019D06368002B0FDD23681A78BA5C12073D
:1014980001D42A46E9E7459A013301324592626848
:1014A8002360013A6260ECE7A19B214630469847E9
:1014B8000028E9D0EDE7BAF1250F7FD14193439396
:1014C80053782A2B04BF1023951C4FF00A0208BF3B
:1014D8004193AB461BF8011BA1F13003092B21D91D
:1014E8000322794800F028FD38B1A0EB0903012058
:1014F8005D469840419B1843419015F8013B672B86
:1015080048D8652B80F09E80472B12D8452B80F059
:101518009980002B6BD0252B50D0032347930A23A7
:10152800429316E0439B5D4602FB0313303B439313
:10153800CFE75B2B67D027D8582BEED1419A42F4DE
:101548000072419210226F2B34BF0323042342926E
:1015580047936368002B77DD419B590604D42368C1
:101568001A78BA5C120776D4479B022B00F3868060
:101578006B46224641A9304600F036FA012800F0B1
:101588009B80022885D12FE0632B47D0642BC4D1E0
:101598000A22D8E7702B2DD008D86E2B44D02ED82D
:1015A800692BBAD1002342930323D1E7752BEFD0DF
:1015B800782BC3D0732BB0D10223C9E76368002B03
:1015C8000CDD23681A78524576D1013362682360AE
:1015D800459B013A0133626045935AE7A19B214636
:1015E800304698470028ECD0449800285AD14FF04C
:1015F800FF305DE0419A42F0200241929EE70823C5
:1016080042930423A4E72946404600F037FB419B58
:10161800054643F040034193012399E7419B43F07A
:1016280040034193002393E74198C3063FF531AF48
:10163800009B459A191D00911B68C0074CBF1A8072
:101648001A6026E7052383E7A19B21463046984781
:10165800002881D0C8E7459A013245926268013A6C
:10166800002A626002DD0133236078E7A19B2146EE
:101678003046984700283FF472AFB5E7042B06DCE4
:101688006B46224641A9304600F006FA76E70F4B32
:10169800002B3FF4FEAE6B46224641A93046AFF31D
:1016A80000806BE7A38913F0400F18BF4FF0FF309D
:1016B8000DF5237DBDE8F08F4498F9E795130008F0
:1016C8000F1400080C240008B623000800000000CE
:1016D8002DE9F04791461F468A680B6906469342F2
:1016E800B8BF1346C9F8003091F843200C46DDF81E
:1016F800208012B10133C9F800302368990642BF2F
:10170800D9F800300233C9F80030256815F006050D
:1017180007D104F1190AE368D9F800209B1AAB42F3
:1017280029DC94F843302268003318BF012392065D
:101738002ED404F1430239463046C047013021D047
:101748002368E56803F00603042B18BF0025D9F8C1
:1017580000204FF0000908BFAD1AA368226908BF2E
:1017680025EAE5759342C4BF9B1AED181A344D4516
:101778001AD1002008E00123524639463046C047B6
:10178800013003D14FF0FF30BDE8F0870135C2E7E3
:101798003020E11881F843005A1C94F8451022447F
:1017A800023382F84310C4E7012322463946304603
:1017B800C0470130E6D009F10109D8E72DE9F04327
:1017C80006460C4601F14300097E85B06E2998460D
:1017D80017460C9B00F0BB8024D8632939D00AD85F
:1017E800002900F0C480582900F0928004F14205D5
:1017F80084F8421035E0642901D06929F6D12568BA
:101808001A6815F0800F02F104012CD012681960D3
:10181800002A03DA2D23524284F84330DFF8C0C18E
:101828000A233FE0732900F0A68008D86F2921D049
:101838007029DBD1226842F02002226003E075297A
:1018480018D07829D2D17822DFF898C184F84520B9
:1018580062E01A6804F14205111D1960136884F8E2
:101868004230012394E0126815F0400F196018BF48
:1018780012B2CDE7D4F800C01A681CF0800F02F14C
:1018880004051D6001D0126803E01CF0400FFAD077
:1018980012886F290CBF08230A23DFF844C10021EE
:1018A80084F843106568002DA8BF2168A560A4BF0F
:1018B80021F0040121600AB9002D46D00546B2FB8B
:1018C800F3F103FB112E1CF80EE0934205F801ED2D
:1018D80039D9082B0BD12368DA0708D52369626840
:1018E8009A42DEBF302305F8013C05F1FF35401B65
:1018F8002061CDF800803B4603AA21463046FFF719
:10190800E7FE013049D14FF0FF3005B0BDE8F08364
:10191800DFF8CCC084F845101D68216855F8042B01
:101928001D600D060BD5CD0744BF41F02001216095
:101938001AB9236823F0200323601023AFE74B066E
:1019480048BF92B2EFE70A46B9E70546C1E71A6809
:10195800D4F800C0151D61691CF0800F1D60136864
:1019680001D0196003E01CF0400FFAD01980002361
:1019780005462361BDE71A68111D19601568002125
:101988006268284600F0D8FA08B1401B60606368B6
:101998002361002384F84330ABE723692A4639469C
:1019A8003046C0470130AED023689B0713D4E068A7
:1019B800039B9842B8BF1846A7E701234A46394611
:1019C8003046C04701309ED00135E368039A9B1A20
:1019D800AB42F2DCEBE7002504F11909F5E700BF9B
:1019E800C1230008D22300082DE9F84315468A6868
:1019F80080460C4632B98A69002A0CBF01224FF092
:101A0800FF328A6000272268DFF88890D1065FBF1E
:101A18001A68111D19601668A06988B1012807D1D4
:101A28002B681A7863699B5C53B927BBBDE8F883B8
:101A3800022820D12B681B7813F809301B071AD409
:101A480023680137DA065EBF2B681B7806F8013B6E
:101A58002A686B6801322A60A268013B013A6B6010
:101A6800A26042B1002BD7DCD4F880312946404629
:101A780098470028D0D0236813F0100305D1E268F6
:101A88000132E260A26902B13370236900201F4469
:101A98002761CBE70C2400082DE9F04F0C46994646
:101AA800724B87B08246164693E8070003AB83E87B
:101AB80007006F4BA1696F4A2746032918BF1A46CA
:101AC800A36801925A1EB2F5AE7F81BF6FF4AE755E
:101AD80003EB050840F25D13A36057F81C3B98BF61
:101AE8004FF000083D464FF0000B43F4506323606D
:101AF800316803AB0222097853F82B0000F01CFA76
:101B080028B3BBF1010F59D162682AB908232268AA
:101B1800636042F400722260226822F4A0622260AC
:101B2800A268511EA16092B13268511C31601278CE
:101B380005F8012B7268013A002A726007DCD4F8B4
:101B48008021314650469047002840F085800BF1AF
:101B5800010BBBF1030FCBD163680BB90A23636098
:101B6800636845496069C91A00F088F84FF0000BAE
:101B7800A3682268002B3DD03168606991F800C0E5
:101B880010F80C00002835D0BCF1300F24D1100516
:101B980022D50BF1010BB8F1000F03D0013308F186
:101BA800FF38A3607368013B002B73601BDD33684B
:101BB80001333360A368013BA360D9E7BBF1020F8F
:101BC800AED1226802F4C061B1F5007FBFD1102305
:101BD80042F480726360A2E722F4106222600B78FC
:101BE80005F8013BDEE7D4F8803131465046984786
:101BF8000028DFD02368D9050DD5BD4209D915F8CD
:101C0800011C05F1FF38D4F87C313246504698471C
:101C18004546BD4228D0226812F0100213D12A701E
:101C2800636839465046019EB047D9F800302168AC
:101C38001A1DC9F8002011F0200F1B680FD018607A
:101C4800E3680133E3600020ED1BAB4425695D4484
:101C5800256107B0BDE8F08F4FF0000BCAE7CA074F
:101C68004CBF18801860EBE70120F2E7E423000876
:101C7800C91E0008D91D00080024000870B50B789B
:101C8800441E5E2B13BF4A1C8A1C4B78002108BFD8
:101C9800012100F1FF0504F8011FAC42FBD113B983
:101CA800013A104670BD81F00104C454511C11F86A
:101CB800015C4E1E2D2D0A4606D05D2DF1D00DB9C2
:101CC8003246EEE72B46F0E70E785D2EFAD0B342A7
:101CD800F8DC01339E42C454FBDC0231E7E7000024
:101CE8002DE9F04786460846384F054615F8014B5A
:101CF800E65D16F0080634D12D2C34D14FF00108DA
:101D08002C78851C002B5CD0102B09D1302C07D1E6
:101D1800287800F0DF0058284ED110236C7802355F
:101D2800B8F1000F14BF4FF0004C6FF0004C0027C3
:101D3800BCFBF3F9384603FB19CAA4F13006092E97
:101D480018D83446A34224DD7E1C07D081451DD314
:101D580001D1A2451ADB012700FB034015F8014B0E
:101D6800EBE72846C1E72B2C08BF2C78B04608BF04
:101D7800851CC7E7A4F14106192E01D8373CE1E7D5
:101D8800A4F16106192E04D8573CDBE74FF0FF3762
:101D9800E4E77B1C06D122236046CEF8003042B926
:101DA800BDE8F087B8F1000F00D04042002AF7D014
:101DB80007B1691E1160F3E73024002BB0D1082366
:101DC800AEE7302CA4D00A23AAE700BF0C240008F1
:101DD800FFF786BF2DE9F04386460846374F05468C
:101DE80015F8014BE65D16F0080631D12D2C31D1DE
:101DF8004FF001082C78851C002B5AD0102B09D1E4
:101E0800302C07D1287800F0DF0058284CD1102357
:101E18006C7802354FF0FF3CBCFBF3FC002603FB5B
:101E28000CF930466FEA0909A4F13007092F18D8D0
:101E38003C46A34224DD002E1FDB84451DD301D17F
:101E4800A1451ADB012600FB034015F8014BEBE71F
:101E58002846C4E72B2C08BF2C78B04608BF851C41
:101E6800CAE7A4F14107192F01D8373CE1E7A4F1EB
:101E78006107192F04D8573CDBE74FF0FF36E4E73A
:101E8800002E07DA22234FF0FF30CEF8003042B997
:101E9800BDE8F083B8F1000F00D04042002AF7D027
:101EA80006B1691E1160F3E73024002BB2D1082374
:101EB800B0E7302CA6D00A23ACE700BF0C240008FA
:101EC800FFF788BF2DE9F0410C46496B04F1440344
:101ED80099421BD14FF4806100F0B0F818B94FF067
:101EE800FF30BDE8F0814FF48063A36394F8463077
:101EF800606380F8FF3394F8453000F2FD3043709A
:101F080094F84430037020600020EAE7A66B77005D
:101F18003A4600F0EDF805460028E0D000EB060848
:101F280001463246404600F015F8C4F80080C4E97E
:101F38000D57E9E77047704710B5C9B2024490429F
:101F4800034601D1002303E01C7801308C42F6D10E
:101F5800184610BD0A44914200F1FF3300D1704782
:101F680010B511F8014B914203F8014FF9D110BD9A
:101F7800884210B501EB020302D983421C4607D8F8
:101F8800421E994208D011F8014B02F8014FF8E7B8
:101F980083189A1A9A4200D110BD14F8011D03F84B
:101FA800011DF7E738B50546002943D051F8043C30
:101FB8000C1F002BB8BFE41800F0D0F81E4A1368B5
:101FC800104633B9636014602846BDE8384000F015
:101FD800CBB8A3420BD921686218934201BF1A6893
:101FE8005B685218226063600460EDE713465A6824
:101FF8000AB1A242FAD919685818A0420BD1206830
:102008000144581882421960DED1106852680144B0
:1020180019605A60D8E702D90C232B60D4E72068EE
:1020280021188A4201BF116852680918216062604C
:102038005C60C9E738BD00BF28010020F8B5CD1C99
:1020480025F0030508350C2D38BF0C25002D064654
:1020580001DBA94203D90C2333600020F8BD00F04E
:102068007DF821490A6814469CB9204F3B6823B97A
:102078002146304600F062F838602946304600F0C4
:102088005DF8431C23D10C233046336000F06CF814
:10209800E3E723685B1B17D40B2B03D923601C448D
:1020A800256004E06368A2420CBF0B6053603046B1
:1020B80000F05AF804F10B00231D20F00700C21AA3
:1020C800CCD01B1AA350C9E722466468CCE7C41CCD
:1020D80024F00304A042E3D0211A304600F02EF881
:1020E8000130DDD1CFE700BF280100202C010020FE
:1020F800F8B5074614460E4621B91146BDE8F84022
:10210800FFF79CBF22B9FFF74DFF25462846F8BDCB
:1021180000F030F8A0420FD221463846FFF78EFF74
:1021280005460028F2D031462246FFF713FF314614
:102138003846FFF737FFE9E73546E7E738B50023C4
:10214800054C054608462360FEF758FC431C02D19F
:10215800236803B12B6038BD300100200148FFF728
:10216800E9BE00BF380100200148FFF7E4BE00BF08
:102178003801002051F8043C181F002BBCBF0B5835
:10218800C01870472E2E2F73797374656D2F737274
:10219800632F73746D333266312D73746470657296
:1021A8006970682F73746D3332663130785F677089
:1021B800696F2E63000000002E2E2F7379737465EB
:1021C8006D2F7372632F73746D333266312D737490
:1021D800647065726970682F73746D33326631305C
:1021E800785F7263632E63002E2E2F737973746584
:1021F8006D2F7372632F73746D333266312D737460
:10220800647065726970682F73746D33326631302B
:10221800785F75736172742E6300000061626F727B
:102228007428292C2065786974696E672E2E2E0013
:102238006173736572745F706172616D28292066BD
:1022480061696C65643A2066696C65202225732291
:102258002C206C696E652025640A00005374616344
:102268006B206672616D653A0A00000020523020CA
:102278003D2020253038580A000000002052312027
:102288003D2020253038580A000000002052322016
:102298003D2020253038580A000000002052332005
:1022A8003D2020253038580A0000000020523132E5
:1022B800203D20253038580A00000000204C5220CC
:1022C8003D2020253038580A0000000020504320C7
:1022D8003D2020253038580A000000002050535275
:1022E800203D20253038580A000000004653522F60
:1022F8004641523A0A0000002043465352203D20EE
:1023080020253038580A00002048465352203D20E6
:1023180020253038580A00002044465352203D20DA
:1023280020253038580A00002041465352203D20CD
:1023380020253038580A0000204D4D464152203D96
:1023480020253038580A00002042464152203D20BE
:1023580020253038580A00004D6973630A000000D0
:10236800204C522F4558435F52455455524E3D20FC
:10237800253038580A0000005B4861726446617570
:102388006C745D0A000000005B4275734661756CF1
:10239800745D0A005B55736167654661756C745DB1
:1023A8000A00000025640000232D302B2000686CF3
:1023B8004C00656667454647003031323334353660
:1023C8003738394142434445460030313233343599
:1023D8003637383961626364656600000224000894
:1023E8000524000808240008412D46612D66383967
:1023F80030313233343536375D002B2D0030300024
:10240800785800002020202020202020202828285C
:1024180028282020202020202020202020202020A4
:1024280020202020881010101010101010101010EC
:10243800101010100404040404040404040410100C
:1024480010101010104141414141410101010101A9
:102458000101010101010101010101010101011055
:10246800101010101042424242424202020202027E
:102478000202020202020202020202020202021026
:1024880010101020000000000000000000000000F4
:102498000000000000000000000000000000000034
:1024A8000000000000000000000000000000000024
:1024B8000000000000000000000000000000000014
:1024C8000000000000000000000000000000000004
:1024D80000000000000000000000000000000000F4
:1024E80000000000000000000000000000000000E4
:1024F80000000000000000000000000000000000D4
:1025080000000000000000000000000000000000C3
:1025180000000000000000000000000000000000B3
:1025280000000000000000000000000000000000A3
:102538000000000000000000000000000000000093
:102548000000000000000000000000000000000083
:102558000000000000000000000000000000000073
:04256800000000006F
:10256C00785634120204060800000000010203042D
:10257C000102030406070809A40000200000000063
:10258C000000000000000000010203040607080917
:10259C0000A24A0438000020000000002C2500088E
:1025AC004C2500080C25000800000000000000006D
:1025BC00000000000000000000000000000000000F
:1025CC0000000000000000000000000000000000FF
:1025DC0000000000000000000000000000000000EF
:1025EC0000000000000000000000000000000000DF
:0C25FC000000000000000000325476983F
:040000050800010DE1
:00000001FF
